{
  "address": "0x5FbDB2315678afecb367f032d93F642f64180aa3",
  "abi": [
    {
      "inputs": [
        {
          "internalType": "address[]",
          "name": "_hospitals",
          "type": "address[]"
        },
        {
          "internalType": "address[]",
          "name": "_patients",
          "type": "address[]"
        }
      ],
      "stateMutability": "nonpayable",
      "type": "constructor"
    },
    {
      "anonymous": false,
      "inputs": [
        {
          "indexed": true,
          "internalType": "address",
          "name": "sender",
          "type": "address"
        },
        {
          "indexed": false,
          "internalType": "uint256",
          "name": "value",
          "type": "uint256"
        }
      ],
      "name": "Deposit",
      "type": "event"
    },
    {
      "anonymous": false,
      "inputs": [
        {
          "indexed": false,
          "internalType": "address",
          "name": "hospital",
          "type": "address"
        }
      ],
      "name": "HospitalAddition",
      "type": "event"
    },
    {
      "anonymous": false,
      "inputs": [
        {
          "indexed": false,
          "internalType": "address",
          "name": "hospital",
          "type": "address"
        }
      ],
      "name": "HospitalRemoval",
      "type": "event"
    },
    {
      "anonymous": false,
      "inputs": [
        {
          "indexed": false,
          "internalType": "uint256",
          "name": "recordID",
          "type": "uint256"
        },
        {
          "indexed": false,
          "internalType": "address",
          "name": "patientAddress",
          "type": "address"
        }
      ],
      "name": "NameAddedToRecords",
      "type": "event"
    },
    {
      "anonymous": false,
      "inputs": [
        {
          "indexed": true,
          "internalType": "address",
          "name": "previousOwner",
          "type": "address"
        },
        {
          "indexed": true,
          "internalType": "address",
          "name": "newOwner",
          "type": "address"
        }
      ],
      "name": "OwnershipTransferred",
      "type": "event"
    },
    {
      "anonymous": false,
      "inputs": [
        {
          "indexed": false,
          "internalType": "address",
          "name": "patient",
          "type": "address"
        }
      ],
      "name": "PatientAddition",
      "type": "event"
    },
    {
      "anonymous": false,
      "inputs": [
        {
          "indexed": false,
          "internalType": "address",
          "name": "patientAddress",
          "type": "address"
        }
      ],
      "name": "PatientPaid",
      "type": "event"
    },
    {
      "anonymous": false,
      "inputs": [
        {
          "indexed": false,
          "internalType": "uint256",
          "name": "recordID",
          "type": "uint256"
        },
        {
          "indexed": false,
          "internalType": "address",
          "name": "patientAddress",
          "type": "address"
        }
      ],
      "name": "PatientRecordAdded",
      "type": "event"
    },
    {
      "anonymous": false,
      "inputs": [
        {
          "indexed": false,
          "internalType": "address",
          "name": "patient",
          "type": "address"
        }
      ],
      "name": "PatientRemoval",
      "type": "event"
    },
    {
      "anonymous": false,
      "inputs": [
        {
          "indexed": false,
          "internalType": "uint256",
          "name": "tokenReward",
          "type": "uint256"
        }
      ],
      "name": "TokenRewardSet",
      "type": "event"
    },
    {
      "stateMutability": "payable",
      "type": "fallback"
    },
    {
      "inputs": [],
      "name": "MAX_COUNT",
      "outputs": [
        {
          "internalType": "uint256",
          "name": "",
          "type": "uint256"
        }
      ],
      "stateMutability": "view",
      "type": "function"
    },
    {
      "inputs": [
        {
          "internalType": "address",
          "name": "_hospital",
          "type": "address"
        }
      ],
      "name": "addHospital",
      "outputs": [],
      "stateMutability": "nonpayable",
      "type": "function"
    },
    {
      "inputs": [
        {
          "internalType": "uint256",
          "name": "_recordID",
          "type": "uint256"
        },
        {
          "internalType": "string",
          "name": "_name",
          "type": "string"
        }
      ],
      "name": "addName",
      "outputs": [],
      "stateMutability": "nonpayable",
      "type": "function"
    },
    {
      "inputs": [
        {
          "internalType": "address",
          "name": "_patient",
          "type": "address"
        }
      ],
      "name": "addPatient",
      "outputs": [],
      "stateMutability": "nonpayable",
      "type": "function"
    },
    {
      "inputs": [
        {
          "internalType": "address",
          "name": "_patientAddress",
          "type": "address"
        },
        {
          "internalType": "address",
          "name": "_hospital",
          "type": "address"
        },
        {
          "internalType": "uint256",
          "name": "_admissionDate",
          "type": "uint256"
        },
        {
          "internalType": "uint256",
          "name": "_dischargeDate",
          "type": "uint256"
        },
        {
          "internalType": "uint256",
          "name": "_visitReason",
          "type": "uint256"
        }
      ],
      "name": "addRecord",
      "outputs": [],
      "stateMutability": "nonpayable",
      "type": "function"
    },
    {
      "inputs": [
        {
          "internalType": "uint256",
          "name": "from",
          "type": "uint256"
        },
        {
          "internalType": "uint256",
          "name": "to",
          "type": "uint256"
        }
      ],
      "name": "getCurrentPatients",
      "outputs": [
        {
          "internalType": "uint256",
          "name": "_numberOfPatients",
          "type": "uint256"
        }
      ],
      "stateMutability": "view",
      "type": "function"
    },
    {
      "inputs": [
        {
          "internalType": "uint256",
          "name": "_recordID",
          "type": "uint256"
        },
        {
          "internalType": "address",
          "name": "_patientAddress",
          "type": "address"
        }
      ],
      "name": "getRecord",
      "outputs": [
        {
          "internalType": "string",
          "name": "_name",
          "type": "string"
        },
        {
          "internalType": "address",
          "name": "_hospital",
          "type": "address"
        },
        {
          "internalType": "uint256",
          "name": "_admissionDate",
          "type": "uint256"
        },
        {
          "internalType": "uint256",
          "name": "_dischargeDate",
          "type": "uint256"
        },
        {
          "internalType": "uint256",
          "name": "_visitReason",
          "type": "uint256"
        }
      ],
      "stateMutability": "view",
      "type": "function"
    },
    {
      "inputs": [
        {
          "internalType": "string",
          "name": "_name",
          "type": "string"
        }
      ],
      "name": "getRecordByName",
      "outputs": [
        {
          "internalType": "uint256",
          "name": "numberOfRecords",
          "type": "uint256"
        }
      ],
      "stateMutability": "view",
      "type": "function"
    },
    {
      "inputs": [
        {
          "internalType": "address",
          "name": "",
          "type": "address"
        }
      ],
      "name": "isHospital",
      "outputs": [
        {
          "internalType": "bool",
          "name": "",
          "type": "bool"
        }
      ],
      "stateMutability": "view",
      "type": "function"
    },
    {
      "inputs": [
        {
          "internalType": "address",
          "name": "",
          "type": "address"
        }
      ],
      "name": "isPatient",
      "outputs": [
        {
          "internalType": "bool",
          "name": "",
          "type": "bool"
        }
      ],
      "stateMutability": "view",
      "type": "function"
    },
    {
      "inputs": [],
      "name": "owner",
      "outputs": [
        {
          "internalType": "address",
          "name": "",
          "type": "address"
        }
      ],
      "stateMutability": "view",
      "type": "function"
    },
    {
      "inputs": [],
      "name": "recordCount",
      "outputs": [
        {
          "internalType": "uint256",
          "name": "",
          "type": "uint256"
        }
      ],
      "stateMutability": "view",
      "type": "function"
    },
    {
      "inputs": [
        {
          "internalType": "address",
          "name": "_hospital",
          "type": "address"
        }
      ],
      "name": "removeHospital",
      "outputs": [],
      "stateMutability": "nonpayable",
      "type": "function"
    },
    {
      "inputs": [
        {
          "internalType": "address",
          "name": "_patient",
          "type": "address"
        }
      ],
      "name": "removePatient",
      "outputs": [],
      "stateMutability": "nonpayable",
      "type": "function"
    },
    {
      "inputs": [],
      "name": "tokenAddress",
      "outputs": [
        {
          "internalType": "address",
          "name": "",
          "type": "address"
        }
      ],
      "stateMutability": "view",
      "type": "function"
    },
    {
      "inputs": [],
      "name": "tokenRewardAmount",
      "outputs": [
        {
          "internalType": "uint256",
          "name": "",
          "type": "uint256"
        }
      ],
      "stateMutability": "view",
      "type": "function"
    },
    {
      "inputs": [
        {
          "internalType": "address",
          "name": "newOwner",
          "type": "address"
        }
      ],
      "name": "transferOwnership",
      "outputs": [],
      "stateMutability": "nonpayable",
      "type": "function"
    },
    {
      "stateMutability": "payable",
      "type": "receive"
    }
  ],
  "transactionHash": "0x5941bddaad20d19ccc8a54080438bd335d1a59b08df6863c54638f0010abf177",
  "args": [
    [
      "0x3C44CdDdB6a900fa2b585dd299e03d12FA4293BC",
      "0x90F79bf6EB2c4f870365E785982E1f101E93b906"
    ],
    [
      "0x15d34AAf54267DB7D7c367839AAf71A00a2C6A65",
      "0x9965507D1a55bcC2695C58ba16FB37d819B0A4dc"
    ]
  ],
  "numDeployments": 1,
  "solcInputHash": "49e5c634330af0005fc080603f7af1fd",
  "bytecode": "0x608060405260006006553480156200001657600080fd5b506040516200291f3803806200291f83398181016040528101906200003c919062000509565b336000806101000a81548173ffffffffffffffffffffffffffffffffffffffff021916908373ffffffffffffffffffffffffffffffffffffffff16021790555081516032811115801562000091575060008114155b6200009b57600080fd5b815160328111158015620000b0575060008114155b620000ba57600080fd5b60005b8451811015620001aa57600073ffffffffffffffffffffffffffffffffffffffff16858281518110620000f557620000f46200058e565b5b602002602001015173ffffffffffffffffffffffffffffffffffffffff1614156200011f57600080fd5b6001600260008784815181106200013b576200013a6200058e565b5b602002602001015173ffffffffffffffffffffffffffffffffffffffff1673ffffffffffffffffffffffffffffffffffffffff16815260200190815260200160002060006101000a81548160ff0219169083151502179055508080620001a190620005f6565b915050620000bd565b600090505b8351811015620003105760026000858381518110620001d357620001d26200058e565b5b602002602001015173ffffffffffffffffffffffffffffffffffffffff1673ffffffffffffffffffffffffffffffffffffffff16815260200190815260200160002060009054906101000a900460ff16156200022e57600080fd5b600073ffffffffffffffffffffffffffffffffffffffff168482815181106200025c576200025b6200058e565b5b602002602001015173ffffffffffffffffffffffffffffffffffffffff1614156200028657600080fd5b6001806000868481518110620002a157620002a06200058e565b5b602002602001015173ffffffffffffffffffffffffffffffffffffffff1673ffffffffffffffffffffffffffffffffffffffff16815260200190815260200160002060006101000a81548160ff02191690831515021790555080806200030790620005f6565b915050620001af565b505050505062000644565b6000604051905090565b600080fd5b600080fd5b600080fd5b6000601f19601f8301169050919050565b7f4e487b7100000000000000000000000000000000000000000000000000000000600052604160045260246000fd5b6200037f8262000334565b810181811067ffffffffffffffff82111715620003a157620003a062000345565b5b80604052505050565b6000620003b66200031b565b9050620003c4828262000374565b919050565b600067ffffffffffffffff821115620003e757620003e662000345565b5b602082029050602081019050919050565b600080fd5b600073ffffffffffffffffffffffffffffffffffffffff82169050919050565b60006200042a82620003fd565b9050919050565b6200043c816200041d565b81146200044857600080fd5b50565b6000815190506200045c8162000431565b92915050565b6000620004796200047384620003c9565b620003aa565b905080838252602082019050602084028301858111156200049f576200049e620003f8565b5b835b81811015620004cc5780620004b788826200044b565b845260208401935050602081019050620004a1565b5050509392505050565b600082601f830112620004ee57620004ed6200032f565b5b81516200050084826020860162000462565b91505092915050565b6000806040838503121562000523576200052262000325565b5b600083015167ffffffffffffffff8111156200054457620005436200032a565b5b6200055285828601620004d6565b925050602083015167ffffffffffffffff8111156200057657620005756200032a565b5b6200058485828601620004d6565b9150509250929050565b7f4e487b7100000000000000000000000000000000000000000000000000000000600052603260045260246000fd5b7f4e487b7100000000000000000000000000000000000000000000000000000000600052601160045260246000fd5b6000819050919050565b60006200060382620005ec565b91507fffffffffffffffffffffffffffffffffffffffffffffffffffffffffffffffff821415620006395762000638620005bd565b5b600182019050919050565b6122cb80620006546000396000f3fe6080604052600436106101025760003560e01c80638da5cb5b116100955780639d76ea58116100645780639d76ea5814610353578063a96989061461037e578063bdf6c673146103a7578063ddd15e87146103e4578063f2fde38b1461040d57610109565b80638da5cb5b146102955780638f9c79ed146102c0578063900407bc146102fd5780639c642d5d1461032857610109565b80636d263ceb116100d15780636d263ceb146101d757806377163c1d146102005780637d0d62571461022b57806382d8185c1461025457610109565b80631450d12b1461010b5780631b470bc714610134578063337e9f4a1461015d5780635d85fa621461019a57610109565b3661010957005b005b34801561011757600080fd5b50610132600480360381019061012d9190611d53565b610436565b005b34801561014057600080fd5b5061015b60048036038101906101569190611e0d565b61087b565b005b34801561016957600080fd5b50610184600480360381019061017f9190611e3a565b610a53565b6040516101919190611e92565b60405180910390f35b3480156101a657600080fd5b506101c160048036038101906101bc9190611ead565b610b7d565b6040516101ce9190611e92565b60405180910390f35b3480156101e357600080fd5b506101fe60048036038101906101f99190611e0d565b610c56565b005b34801561020c57600080fd5b50610215610e2d565b6040516102229190611e92565b60405180910390f35b34801561023757600080fd5b50610252600480360381019061024d9190611e0d565b610e32565b005b34801561026057600080fd5b5061027b60048036038101906102769190611eed565b610f74565b60405161028c959493929190611fc4565b60405180910390f35b3480156102a157600080fd5b506102aa6113b7565b6040516102b7919061201e565b60405180910390f35b3480156102cc57600080fd5b506102e760048036038101906102e29190611e0d565b6113db565b6040516102f49190612054565b60405180910390f35b34801561030957600080fd5b506103126113fb565b60405161031f9190611e92565b60405180910390f35b34801561033457600080fd5b5061033d611401565b60405161034a9190611e92565b60405180910390f35b34801561035f57600080fd5b50610368611407565b604051610375919061201e565b60405180910390f35b34801561038a57600080fd5b506103a560048036038101906103a09190611e0d565b61142d565b005b3480156103b357600080fd5b506103ce60048036038101906103c99190611e0d565b61156f565b6040516103db9190612054565b60405180910390f35b3480156103f057600080fd5b5061040b6004803603810190610406919061206f565b61158f565b005b34801561041957600080fd5b50610434600480360381019061042f9190611e0d565b6119d1565b005b33600160008273ffffffffffffffffffffffffffffffffffffffff1673ffffffffffffffffffffffffffffffffffffffff16815260200190815260200160002060009054906101000a900460ff1661048d57600080fd5b823373ffffffffffffffffffffffffffffffffffffffff166003600083815260200190815260200160002060003373ffffffffffffffffffffffffffffffffffffffff1673ffffffffffffffffffffffffffffffffffffffff16815260200190815260200160002060020160009054906101000a900473ffffffffffffffffffffffffffffffffffffffff1673ffffffffffffffffffffffffffffffffffffffff161461053957600080fd5b833360006003600084815260200190815260200160002060008373ffffffffffffffffffffffffffffffffffffffff1673ffffffffffffffffffffffffffffffffffffffff16815260200190815260200160002060030160009054906101000a900473ffffffffffffffffffffffffffffffffffffffff169050600073ffffffffffffffffffffffffffffffffffffffff168173ffffffffffffffffffffffffffffffffffffffff1614156105ed57600080fd5b85600081905060008151141561060257600080fd5b8833600015156003600084815260200190815260200160002060008373ffffffffffffffffffffffffffffffffffffffff1673ffffffffffffffffffffffffffffffffffffffff16815260200190815260200160002060000160009054906101000a900460ff1615151461067557600080fd5b6001600360008d815260200190815260200160002060003373ffffffffffffffffffffffffffffffffffffffff1673ffffffffffffffffffffffffffffffffffffffff16815260200190815260200160002060000160006101000a81548160ff02191690831515021790555089600360008d815260200190815260200160002060003373ffffffffffffffffffffffffffffffffffffffff1673ffffffffffffffffffffffffffffffffffffffff1681526020019081526020016000206001019080519060200190610748929190611b20565b506000600360008d815260200190815260200160002060003373ffffffffffffffffffffffffffffffffffffffff1673ffffffffffffffffffffffffffffffffffffffff16815260200190815260200160002060030160009054906101000a900473ffffffffffffffffffffffffffffffffffffffff1690506001600560008373ffffffffffffffffffffffffffffffffffffffff1673ffffffffffffffffffffffffffffffffffffffff1681526020019081526020016000208c6040516108109190612126565b9081526020016040518091039020600082825461082d919061216c565b925050819055507ff961dcbb7de5f5ad2d484ef309a56b535546c0b93a13c509af81775c0f1afec88c336040516108659291906121c2565b60405180910390a1505050505050505050505050565b60008054906101000a900473ffffffffffffffffffffffffffffffffffffffff1673ffffffffffffffffffffffffffffffffffffffff163373ffffffffffffffffffffffffffffffffffffffff16146108d357600080fd5b80600260008273ffffffffffffffffffffffffffffffffffffffff1673ffffffffffffffffffffffffffffffffffffffff16815260200190815260200160002060009054906101000a900460ff161561092b57600080fd5b81600160008273ffffffffffffffffffffffffffffffffffffffff1673ffffffffffffffffffffffffffffffffffffffff16815260200190815260200160002060009054906101000a900460ff161561098357600080fd5b82600073ffffffffffffffffffffffffffffffffffffffff168173ffffffffffffffffffffffffffffffffffffffff1614156109be57600080fd5b6001600260008673ffffffffffffffffffffffffffffffffffffffff1673ffffffffffffffffffffffffffffffffffffffff16815260200190815260200160002060006101000a81548160ff0219169083151502179055507f287ab756b8d47062a978ed6e40674fb341af71a7b67a1c47d68c41816e77f71084604051610a45919061201e565b60405180910390a150505050565b600033600260008273ffffffffffffffffffffffffffffffffffffffff1673ffffffffffffffffffffffffffffffffffffffff16815260200190815260200160002060009054906101000a900460ff16610aac57600080fd5b6000600560003373ffffffffffffffffffffffffffffffffffffffff1673ffffffffffffffffffffffffffffffffffffffff16815260200190815260200160002084604051610afb9190612126565b90815260200160405180910390205414610b7257600560003373ffffffffffffffffffffffffffffffffffffffff1673ffffffffffffffffffffffffffffffffffffffff16815260200190815260200160002083604051610b5c9190612126565b9081526020016040518091039020549150610b77565b600091505b50919050565b600033600260008273ffffffffffffffffffffffffffffffffffffffff1673ffffffffffffffffffffffffffffffffffffffff16815260200190815260200160002060009054906101000a900460ff16610bd657600080fd5b6000809250600090505b600654811015610c4e5784600460008381526020019081526020016000206000015410158015610c26575083600460008381526020019081526020016000206001015411155b15610c3b57600183610c38919061216c565b92505b8080610c46906121eb565b915050610be0565b505092915050565b60008054906101000a900473ffffffffffffffffffffffffffffffffffffffff1673ffffffffffffffffffffffffffffffffffffffff163373ffffffffffffffffffffffffffffffffffffffff1614610cae57600080fd5b80600160008273ffffffffffffffffffffffffffffffffffffffff1673ffffffffffffffffffffffffffffffffffffffff16815260200190815260200160002060009054906101000a900460ff1615610d0657600080fd5b81600260008273ffffffffffffffffffffffffffffffffffffffff1673ffffffffffffffffffffffffffffffffffffffff16815260200190815260200160002060009054906101000a900460ff1615610d5e57600080fd5b82600073ffffffffffffffffffffffffffffffffffffffff168173ffffffffffffffffffffffffffffffffffffffff161415610d9957600080fd5b60018060008673ffffffffffffffffffffffffffffffffffffffff1673ffffffffffffffffffffffffffffffffffffffff16815260200190815260200160002060006101000a81548160ff0219169083151502179055507ff75424a59c353b95f24d9c0d7860f6092d93693015907a3e3686dad567659ed984604051610e1f919061201e565b60405180910390a150505050565b603281565b60008054906101000a900473ffffffffffffffffffffffffffffffffffffffff1673ffffffffffffffffffffffffffffffffffffffff163373ffffffffffffffffffffffffffffffffffffffff1614610e8a57600080fd5b80600160008273ffffffffffffffffffffffffffffffffffffffff1673ffffffffffffffffffffffffffffffffffffffff16815260200190815260200160002060009054906101000a900460ff16610ee157600080fd5b6000600160008473ffffffffffffffffffffffffffffffffffffffff1673ffffffffffffffffffffffffffffffffffffffff16815260200190815260200160002060006101000a81548160ff0219169083151502179055507fd00d169b387ed019da2c547c0301001cb83f928efec4dac9146387fabe162ccb82604051610f68919061201e565b60405180910390a15050565b6060600080600080868660006003600084815260200190815260200160002060008373ffffffffffffffffffffffffffffffffffffffff1673ffffffffffffffffffffffffffffffffffffffff16815260200190815260200160002060030160009054906101000a900473ffffffffffffffffffffffffffffffffffffffff169050600073ffffffffffffffffffffffffffffffffffffffff168173ffffffffffffffffffffffffffffffffffffffff16141561103057600080fd5b8989600115156003600084815260200190815260200160002060008373ffffffffffffffffffffffffffffffffffffffff1673ffffffffffffffffffffffffffffffffffffffff16815260200190815260200160002060000160009054906101000a900460ff161515146110a357600080fd5b8b8b3373ffffffffffffffffffffffffffffffffffffffff166003600084815260200190815260200160002060008373ffffffffffffffffffffffffffffffffffffffff1673ffffffffffffffffffffffffffffffffffffffff16815260200190815260200160002060030160009054906101000a900473ffffffffffffffffffffffffffffffffffffffff1673ffffffffffffffffffffffffffffffffffffffff161461115057600080fd5b600360008f815260200190815260200160002060008e73ffffffffffffffffffffffffffffffffffffffff1673ffffffffffffffffffffffffffffffffffffffff16815260200190815260200160002060010180546111ae90612263565b80601f01602080910402602001604051908101604052809291908181526020018280546111da90612263565b80156112275780601f106111fc57610100808354040283529160200191611227565b820191906000526020600020905b81548152906001019060200180831161120a57829003601f168201915b50505050509b50600360008f815260200190815260200160002060008e73ffffffffffffffffffffffffffffffffffffffff1673ffffffffffffffffffffffffffffffffffffffff16815260200190815260200160002060030160009054906101000a900473ffffffffffffffffffffffffffffffffffffffff169a50600360008f815260200190815260200160002060008e73ffffffffffffffffffffffffffffffffffffffff1673ffffffffffffffffffffffffffffffffffffffff168152602001908152602001600020600401549950600360008f815260200190815260200160002060008e73ffffffffffffffffffffffffffffffffffffffff1673ffffffffffffffffffffffffffffffffffffffff168152602001908152602001600020600501549850600360008f815260200190815260200160002060008e73ffffffffffffffffffffffffffffffffffffffff1673ffffffffffffffffffffffffffffffffffffffff168152602001908152602001600020600601549750505050505050509295509295909350565b60008054906101000a900473ffffffffffffffffffffffffffffffffffffffff1681565b60016020528060005260406000206000915054906101000a900460ff1681565b60065481565b60075481565b600860009054906101000a900473ffffffffffffffffffffffffffffffffffffffff1681565b60008054906101000a900473ffffffffffffffffffffffffffffffffffffffff1673ffffffffffffffffffffffffffffffffffffffff163373ffffffffffffffffffffffffffffffffffffffff161461148557600080fd5b80600260008273ffffffffffffffffffffffffffffffffffffffff1673ffffffffffffffffffffffffffffffffffffffff16815260200190815260200160002060009054906101000a900460ff166114dc57600080fd5b6000600260008473ffffffffffffffffffffffffffffffffffffffff1673ffffffffffffffffffffffffffffffffffffffff16815260200190815260200160002060006101000a81548160ff0219169083151502179055507fbfb48ce53ec1045d105aa1e3d52a1e02185802cf0f94b31ce88866cffb0bf4ce82604051611563919061201e565b60405180910390a15050565b60026020528060005260406000206000915054906101000a900460ff1681565b60008054906101000a900473ffffffffffffffffffffffffffffffffffffffff1673ffffffffffffffffffffffffffffffffffffffff163373ffffffffffffffffffffffffffffffffffffffff16146115e757600080fd5b84600160008273ffffffffffffffffffffffffffffffffffffffff1673ffffffffffffffffffffffffffffffffffffffff16815260200190815260200160002060009054906101000a900460ff1661163e57600080fd5b84600260008273ffffffffffffffffffffffffffffffffffffffff1673ffffffffffffffffffffffffffffffffffffffff16815260200190815260200160002060009054906101000a900460ff1661169557600080fd5b600060036000600654815260200190815260200160002060008973ffffffffffffffffffffffffffffffffffffffff1673ffffffffffffffffffffffffffffffffffffffff16815260200190815260200160002060000160006101000a81548160ff0219169083151502179055508660036000600654815260200190815260200160002060008973ffffffffffffffffffffffffffffffffffffffff1673ffffffffffffffffffffffffffffffffffffffff16815260200190815260200160002060020160006101000a81548173ffffffffffffffffffffffffffffffffffffffff021916908373ffffffffffffffffffffffffffffffffffffffff1602179055508560036000600654815260200190815260200160002060008973ffffffffffffffffffffffffffffffffffffffff1673ffffffffffffffffffffffffffffffffffffffff16815260200190815260200160002060030160006101000a81548173ffffffffffffffffffffffffffffffffffffffff021916908373ffffffffffffffffffffffffffffffffffffffff1602179055508460036000600654815260200190815260200160002060008973ffffffffffffffffffffffffffffffffffffffff1673ffffffffffffffffffffffffffffffffffffffff168152602001908152602001600020600401819055508360036000600654815260200190815260200160002060008973ffffffffffffffffffffffffffffffffffffffff1673ffffffffffffffffffffffffffffffffffffffff168152602001908152602001600020600501819055508260036000600654815260200190815260200160002060008973ffffffffffffffffffffffffffffffffffffffff1673ffffffffffffffffffffffffffffffffffffffff16815260200190815260200160002060060181905550846004600060065481526020019081526020016000206000018190555083600460006006548152602001908152602001600020600101819055507f1b2cf9192ff159a0857f42005efa4d396207762041b02376140ce1011888db24600654886040516119a69291906121c2565b60405180910390a16001600660008282546119c1919061216c565b9250508190555050505050505050565b60008054906101000a900473ffffffffffffffffffffffffffffffffffffffff1673ffffffffffffffffffffffffffffffffffffffff163373ffffffffffffffffffffffffffffffffffffffff1614611a2957600080fd5b600073ffffffffffffffffffffffffffffffffffffffff168173ffffffffffffffffffffffffffffffffffffffff161415611a6357600080fd5b8073ffffffffffffffffffffffffffffffffffffffff1660008054906101000a900473ffffffffffffffffffffffffffffffffffffffff1673ffffffffffffffffffffffffffffffffffffffff167f8be0079c531659141344cd1fd0a4f28419497f9722a3daafe3b4186f6b6457e060405160405180910390a3806000806101000a81548173ffffffffffffffffffffffffffffffffffffffff021916908373ffffffffffffffffffffffffffffffffffffffff16021790555050565b828054611b2c90612263565b90600052602060002090601f016020900481019282611b4e5760008555611b95565b82601f10611b6757805160ff1916838001178555611b95565b82800160010185558215611b95579182015b82811115611b94578251825591602001919060010190611b79565b5b509050611ba29190611ba6565b5090565b5b80821115611bbf576000816000905550600101611ba7565b5090565b6000604051905090565b600080fd5b600080fd5b6000819050919050565b611bea81611bd7565b8114611bf557600080fd5b50565b600081359050611c0781611be1565b92915050565b600080fd5b600080fd5b6000601f19601f8301169050919050565b7f4e487b7100000000000000000000000000000000000000000000000000000000600052604160045260246000fd5b611c6082611c17565b810181811067ffffffffffffffff82111715611c7f57611c7e611c28565b5b80604052505050565b6000611c92611bc3565b9050611c9e8282611c57565b919050565b600067ffffffffffffffff821115611cbe57611cbd611c28565b5b611cc782611c17565b9050602081019050919050565b82818337600083830152505050565b6000611cf6611cf184611ca3565b611c88565b905082815260208101848484011115611d1257611d11611c12565b5b611d1d848285611cd4565b509392505050565b600082601f830112611d3a57611d39611c0d565b5b8135611d4a848260208601611ce3565b91505092915050565b60008060408385031215611d6a57611d69611bcd565b5b6000611d7885828601611bf8565b925050602083013567ffffffffffffffff811115611d9957611d98611bd2565b5b611da585828601611d25565b9150509250929050565b600073ffffffffffffffffffffffffffffffffffffffff82169050919050565b6000611dda82611daf565b9050919050565b611dea81611dcf565b8114611df557600080fd5b50565b600081359050611e0781611de1565b92915050565b600060208284031215611e2357611e22611bcd565b5b6000611e3184828501611df8565b91505092915050565b600060208284031215611e5057611e4f611bcd565b5b600082013567ffffffffffffffff811115611e6e57611e6d611bd2565b5b611e7a84828501611d25565b91505092915050565b611e8c81611bd7565b82525050565b6000602082019050611ea76000830184611e83565b92915050565b60008060408385031215611ec457611ec3611bcd565b5b6000611ed285828601611bf8565b9250506020611ee385828601611bf8565b9150509250929050565b60008060408385031215611f0457611f03611bcd565b5b6000611f1285828601611bf8565b9250506020611f2385828601611df8565b9150509250929050565b600081519050919050565b600082825260208201905092915050565b60005b83811015611f67578082015181840152602081019050611f4c565b83811115611f76576000848401525b50505050565b6000611f8782611f2d565b611f918185611f38565b9350611fa1818560208601611f49565b611faa81611c17565b840191505092915050565b611fbe81611dcf565b82525050565b600060a0820190508181036000830152611fde8188611f7c565b9050611fed6020830187611fb5565b611ffa6040830186611e83565b6120076060830185611e83565b6120146080830184611e83565b9695505050505050565b60006020820190506120336000830184611fb5565b92915050565b60008115159050919050565b61204e81612039565b82525050565b60006020820190506120696000830184612045565b92915050565b600080600080600060a0868803121561208b5761208a611bcd565b5b600061209988828901611df8565b95505060206120aa88828901611df8565b94505060406120bb88828901611bf8565b93505060606120cc88828901611bf8565b92505060806120dd88828901611bf8565b9150509295509295909350565b600081905092915050565b600061210082611f2d565b61210a81856120ea565b935061211a818560208601611f49565b80840191505092915050565b600061213282846120f5565b915081905092915050565b7f4e487b7100000000000000000000000000000000000000000000000000000000600052601160045260246000fd5b600061217782611bd7565b915061218283611bd7565b9250827fffffffffffffffffffffffffffffffffffffffffffffffffffffffffffffffff038211156121b7576121b661213d565b5b828201905092915050565b60006040820190506121d76000830185611e83565b6121e46020830184611fb5565b9392505050565b60006121f682611bd7565b91507fffffffffffffffffffffffffffffffffffffffffffffffffffffffffffffffff8214156122295761222861213d565b5b600182019050919050565b7f4e487b7100000000000000000000000000000000000000000000000000000000600052602260045260246000fd5b6000600282049050600182168061227b57607f821691505b6020821081141561228f5761228e612234565b5b5091905056fea2646970667358221220aa469ebb535d9f3bc5c5e5cda2df2daf48eecfacaee8a6f53009c6ee91e6d82264736f6c63430008090033",
  "devdoc": {
    "kind": "dev",
    "methods": {
      "addHospital(address)": {
        "details": "Allows to add a new hospital in the network.",
        "params": {
          "_hospital": "Address of new hospital."
        }
      },
      "addName(uint256,string)": {
        "details": "Allows a patient to add their name to the record in the network.",
        "params": {
          "_name": "Name for the patient",
          "_recordID": "ID of the patient specific record."
        }
      },
      "addPatient(address)": {
        "details": "Allows to add a new patient in the network.",
        "params": {
          "_patient": "Address of new patient."
        }
      },
      "addRecord(address,address,uint256,uint256,uint256)": {
        "details": "Allows to add a patient record in the network.",
        "params": {
          "_admissionDate": "date of admission, simple uint.",
          "_dischargeDate": "date of discharge, simple uint.",
          "_hospital": "address of the hospital for record.",
          "_patientAddress": "address of the patient for record.",
          "_visitReason": "internal code for reason for visit."
        }
      },
      "constructor": {
        "details": "Contract constructor sets initial hospitals and patients.",
        "params": {
          "_hospitals": "Address array of initial hospitals.",
          "_patients": "Address array of initial patients"
        }
      },
      "getCurrentPatients(uint256,uint256)": {
        "details": "Allows a Hospital to view the number of patients on a given date range.",
        "params": {
          "from": "Starting date",
          "to": "Ending date"
        }
      },
      "getRecord(uint256,address)": {
        "details": "Allows a Hospital to retrieve the record for a patient.",
        "params": {
          "_patientAddress": "address of the patient for record.",
          "_recordID": "ID of the patient specific record."
        }
      },
      "getRecordByName(string)": {
        "details": "Allows a Hospital to view the number of records for a patient.",
        "params": {
          "_name": "Name for the patient"
        }
      },
      "removeHospital(address)": {
        "details": "Allows to remove a hospital in the network.",
        "params": {
          "_hospital": "Address of hospital to remove."
        }
      },
      "removePatient(address)": {
        "details": "Allows to remove a patient in the network.",
        "params": {
          "_patient": "Address of patient to remove."
        }
      },
      "transferOwnership(address)": {
        "details": "Allows the current owner to transfer control of the contract to a newOwner.",
        "params": {
          "newOwner": "The address to transfer ownership to."
        }
      }
    },
    "version": 1
  },
  "userdoc": {
    "kind": "user",
    "methods": {},
    "version": 1
  },
  "storageLayout": {
    "storage": [
      {
        "astId": 979,
        "contract": "contracts/HealthRecord.sol:HealthRecord",
        "label": "owner",
        "offset": 0,
        "slot": "0",
        "type": "t_address"
      },
      {
        "astId": 55,
        "contract": "contracts/HealthRecord.sol:HealthRecord",
        "label": "isPatient",
        "offset": 0,
        "slot": "1",
        "type": "t_mapping(t_address,t_bool)"
      },
      {
        "astId": 59,
        "contract": "contracts/HealthRecord.sol:HealthRecord",
        "label": "isHospital",
        "offset": 0,
        "slot": "2",
        "type": "t_mapping(t_address,t_bool)"
      },
      {
        "astId": 66,
        "contract": "contracts/HealthRecord.sol:HealthRecord",
        "label": "records",
        "offset": 0,
        "slot": "3",
        "type": "t_mapping(t_uint256,t_mapping(t_address,t_struct(Records)99_storage))"
      },
      {
        "astId": 71,
        "contract": "contracts/HealthRecord.sol:HealthRecord",
        "label": "dateRanges",
        "offset": 0,
        "slot": "4",
        "type": "t_mapping(t_uint256,t_struct(dateRange)104_storage)"
      },
      {
        "astId": 77,
        "contract": "contracts/HealthRecord.sol:HealthRecord",
        "label": "mappingByName",
        "offset": 0,
        "slot": "5",
        "type": "t_mapping(t_address,t_mapping(t_string_memory_ptr,t_uint256))"
      },
      {
        "astId": 80,
        "contract": "contracts/HealthRecord.sol:HealthRecord",
        "label": "recordCount",
        "offset": 0,
        "slot": "6",
        "type": "t_uint256"
      },
      {
        "astId": 82,
        "contract": "contracts/HealthRecord.sol:HealthRecord",
        "label": "tokenRewardAmount",
        "offset": 0,
        "slot": "7",
        "type": "t_uint256"
      },
      {
        "astId": 84,
        "contract": "contracts/HealthRecord.sol:HealthRecord",
        "label": "tokenAddress",
        "offset": 0,
        "slot": "8",
        "type": "t_address"
      }
    ],
    "types": {
      "t_address": {
        "encoding": "inplace",
        "label": "address",
        "numberOfBytes": "20"
      },
      "t_bool": {
        "encoding": "inplace",
        "label": "bool",
        "numberOfBytes": "1"
      },
      "t_mapping(t_address,t_bool)": {
        "encoding": "mapping",
        "key": "t_address",
        "label": "mapping(address => bool)",
        "numberOfBytes": "32",
        "value": "t_bool"
      },
      "t_mapping(t_address,t_mapping(t_string_memory_ptr,t_uint256))": {
        "encoding": "mapping",
        "key": "t_address",
        "label": "mapping(address => mapping(string => uint256))",
        "numberOfBytes": "32",
        "value": "t_mapping(t_string_memory_ptr,t_uint256)"
      },
      "t_mapping(t_address,t_struct(Records)99_storage)": {
        "encoding": "mapping",
        "key": "t_address",
        "label": "mapping(address => struct HealthRecord.Records)",
        "numberOfBytes": "32",
        "value": "t_struct(Records)99_storage"
      },
      "t_mapping(t_string_memory_ptr,t_uint256)": {
        "encoding": "mapping",
        "key": "t_string_memory_ptr",
        "label": "mapping(string => uint256)",
        "numberOfBytes": "32",
        "value": "t_uint256"
      },
      "t_mapping(t_uint256,t_mapping(t_address,t_struct(Records)99_storage))": {
        "encoding": "mapping",
        "key": "t_uint256",
        "label": "mapping(uint256 => mapping(address => struct HealthRecord.Records))",
        "numberOfBytes": "32",
        "value": "t_mapping(t_address,t_struct(Records)99_storage)"
      },
      "t_mapping(t_uint256,t_struct(dateRange)104_storage)": {
        "encoding": "mapping",
        "key": "t_uint256",
        "label": "mapping(uint256 => struct HealthRecord.dateRange)",
        "numberOfBytes": "32",
        "value": "t_struct(dateRange)104_storage"
      },
      "t_string_memory_ptr": {
        "encoding": "bytes",
        "label": "string",
        "numberOfBytes": "32"
      },
      "t_string_storage": {
        "encoding": "bytes",
        "label": "string",
        "numberOfBytes": "32"
      },
      "t_struct(Records)99_storage": {
        "encoding": "inplace",
        "label": "struct HealthRecord.Records",
        "members": [
          {
            "astId": 86,
            "contract": "contracts/HealthRecord.sol:HealthRecord",
            "label": "providedName",
            "offset": 0,
            "slot": "0",
            "type": "t_bool"
          },
          {
            "astId": 88,
            "contract": "contracts/HealthRecord.sol:HealthRecord",
            "label": "name",
            "offset": 0,
            "slot": "1",
            "type": "t_string_storage"
          },
          {
            "astId": 90,
            "contract": "contracts/HealthRecord.sol:HealthRecord",
            "label": "patient",
            "offset": 0,
            "slot": "2",
            "type": "t_address"
          },
          {
            "astId": 92,
            "contract": "contracts/HealthRecord.sol:HealthRecord",
            "label": "hospital",
            "offset": 0,
            "slot": "3",
            "type": "t_address"
          },
          {
            "astId": 94,
            "contract": "contracts/HealthRecord.sol:HealthRecord",
            "label": "admissionDate",
            "offset": 0,
            "slot": "4",
            "type": "t_uint256"
          },
          {
            "astId": 96,
            "contract": "contracts/HealthRecord.sol:HealthRecord",
            "label": "dischargeDate",
            "offset": 0,
            "slot": "5",
            "type": "t_uint256"
          },
          {
            "astId": 98,
            "contract": "contracts/HealthRecord.sol:HealthRecord",
            "label": "visitReason",
            "offset": 0,
            "slot": "6",
            "type": "t_uint256"
          }
        ],
        "numberOfBytes": "224"
      },
      "t_struct(dateRange)104_storage": {
        "encoding": "inplace",
        "label": "struct HealthRecord.dateRange",
        "members": [
          {
            "astId": 101,
            "contract": "contracts/HealthRecord.sol:HealthRecord",
            "label": "admissionDate",
            "offset": 0,
            "slot": "0",
            "type": "t_uint256"
          },
          {
            "astId": 103,
            "contract": "contracts/HealthRecord.sol:HealthRecord",
            "label": "dischargeDate",
            "offset": 0,
            "slot": "1",
            "type": "t_uint256"
          }
        ],
        "numberOfBytes": "64"
      },
      "t_uint256": {
        "encoding": "inplace",
        "label": "uint256",
        "numberOfBytes": "32"
      }
    }
  }
}